{"abi":[{"type":"function","name":"DECIMAL_PRECISION_I","inputs":[],"outputs":[{"name":"","type":"int256","internalType":"int256"}],"stateMutability":"view"},{"type":"function","name":"controlError","inputs":[{"name":"market","type":"uint256","internalType":"uint256"}],"outputs":[{"name":"","type":"int256","internalType":"int256"}],"stateMutability":"pure"},{"type":"function","name":"isOwner","inputs":[],"outputs":[{"name":"","type":"bool","internalType":"bool"}],"stateMutability":"view"},{"type":"function","name":"marketOracle","inputs":[],"outputs":[{"name":"","type":"address","internalType":"contract IMarketOracle"}],"stateMutability":"view"},{"type":"function","name":"owner","inputs":[],"outputs":[{"name":"","type":"address","internalType":"address"}],"stateMutability":"view"},{"type":"function","name":"parControl","inputs":[],"outputs":[{"name":"","type":"address","internalType":"contract IParControl"}],"stateMutability":"view"},{"type":"function","name":"parControlError","inputs":[{"name":"market","type":"uint256","internalType":"uint256"}],"outputs":[{"name":"","type":"int256","internalType":"int256"}],"stateMutability":"pure"},{"type":"function","name":"rateControl","inputs":[],"outputs":[{"name":"","type":"address","internalType":"contract IRateControl"}],"stateMutability":"view"},{"type":"function","name":"rateControlError","inputs":[{"name":"market","type":"uint256","internalType":"uint256"},{"name":"par","type":"uint256","internalType":"uint256"}],"outputs":[{"name":"","type":"int256","internalType":"int256"}],"stateMutability":"pure"},{"type":"function","name":"setAddresses","inputs":[{"name":"parControlAddress","type":"address","internalType":"address"},{"name":"rateControlAddress","type":"address","internalType":"address"},{"name":"marketOracleAddress","type":"address","internalType":"address"},{"name":"troveManagerAddress","type":"address","internalType":"address"}],"outputs":[],"stateMutability":"nonpayable"},{"type":"function","name":"troveManager","inputs":[],"outputs":[{"name":"","type":"address","internalType":"contract ITroveManager"}],"stateMutability":"view"},{"type":"function","name":"updatePar","inputs":[],"outputs":[{"name":"","type":"uint256","internalType":"uint256"}],"stateMutability":"nonpayable"},{"type":"function","name":"updateRate","inputs":[],"outputs":[{"name":"","type":"uint256","internalType":"uint256"}],"stateMutability":"nonpayable"},{"type":"event","name":"MarketOracleAddressChanged","inputs":[{"name":"newAddress","type":"address","indexed":false,"internalType":"address"}],"anonymous":false},{"type":"event","name":"OwnershipTransferred","inputs":[{"name":"previousOwner","type":"address","indexed":true,"internalType":"address"},{"name":"newOwner","type":"address","indexed":true,"internalType":"address"}],"anonymous":false},{"type":"event","name":"ParControlAddressChanged","inputs":[{"name":"newAddress","type":"address","indexed":false,"internalType":"address"}],"anonymous":false},{"type":"event","name":"ParUpdated","inputs":[{"name":"par","type":"int256","indexed":false,"internalType":"int256"},{"name":"pOutput","type":"int256","indexed":false,"internalType":"int256"},{"name":"iOutput","type":"int256","indexed":false,"internalType":"int256"},{"name":"error","type":"int256","indexed":false,"internalType":"int256"}],"anonymous":false},{"type":"event","name":"RateControlAddressChanged","inputs":[{"name":"newAddress","type":"address","indexed":false,"internalType":"address"}],"anonymous":false},{"type":"event","name":"RateUpdated","inputs":[{"name":"rate","type":"int256","indexed":false,"internalType":"int256"},{"name":"pOutput","type":"int256","indexed":false,"internalType":"int256"},{"name":"iOutput","type":"int256","indexed":false,"internalType":"int256"},{"name":"error","type":"int256","indexed":false,"internalType":"int256"}],"anonymous":false},{"type":"event","name":"TroveManagerAddressChanged","inputs":[{"name":"newAddress","type":"address","indexed":false,"internalType":"address"}],"anonymous":false}],"bytecode":{"object":"0x608060405234801561001057600080fd5b50336000806101000a81548173ffffffffffffffffffffffffffffffffffffffff021916908373ffffffffffffffffffffffffffffffffffffffff1602179055503373ffffffffffffffffffffffffffffffffffffffff16600073ffffffffffffffffffffffffffffffffffffffff167f8be0079c531659141344cd1fd0a4f28419497f9722a3daafe3b4186f6b6457e060405160405180910390a3610f0c806100bb6000396000f3fe608060405234801561001057600080fd5b50600436106100cf5760003560e01c8063653e87a71161008c578063a48e77f611610066578063a48e77f614610342578063c7fee63e1461038c578063ce3d2302146103aa578063dc9c0a09146103f4576100cf565b8063653e87a7146102945780638da5cb5b146102d65780638f32d59b14610320576100cf565b80631311c115146100d45780631cc37032146100f25780633d83908a146101105780634590bdfd1461015a5780634a945f8d146101a6578063609615281461024a575b600080fd5b6100dc610436565b6040518082815260200191505060405180910390f35b6100fa610445565b6040518082815260200191505060405180910390f35b610118610451565b604051808273ffffffffffffffffffffffffffffffffffffffff1673ffffffffffffffffffffffffffffffffffffffff16815260200191505060405180910390f35b6101906004803603604081101561017057600080fd5b810190808035906020019092919080359060200190929190505050610477565b6040518082815260200191505060405180910390f35b610248600480360360808110156101bc57600080fd5b81019080803573ffffffffffffffffffffffffffffffffffffffff169060200190929190803573ffffffffffffffffffffffffffffffffffffffff169060200190929190803573ffffffffffffffffffffffffffffffffffffffff169060200190929190803573ffffffffffffffffffffffffffffffffffffffff16906020019092919050505061048b565b005b6102526107c7565b604051808273ffffffffffffffffffffffffffffffffffffffff1673ffffffffffffffffffffffffffffffffffffffff16815260200191505060405180910390f35b6102c0600480360360208110156102aa57600080fd5b81019080803590602001909291905050506107ed565b6040518082815260200191505060405180910390f35b6102de6107ff565b604051808273ffffffffffffffffffffffffffffffffffffffff1673ffffffffffffffffffffffffffffffffffffffff16815260200191505060405180910390f35b610328610828565b604051808215151515815260200191505060405180910390f35b61034a61087f565b604051808273ffffffffffffffffffffffffffffffffffffffff1673ffffffffffffffffffffffffffffffffffffffff16815260200191505060405180910390f35b6103946108a5565b6040518082815260200191505060405180910390f35b6103b2610a91565b604051808273ffffffffffffffffffffffffffffffffffffffff1673ffffffffffffffffffffffffffffffffffffffff16815260200191505060405180910390f35b6104206004803603602081101561040a57600080fd5b8101908080359060200190929190505050610ab7565b6040518082815260200191505060405180910390f35b6000610440610ac9565b905090565b670de0b6b3a764000081565b600460009054906101000a900473ffffffffffffffffffffffffffffffffffffffff1681565b60006104838383610ca7565b905092915050565b610493610828565b610505576040517f08c379a00000000000000000000000000000000000000000000000000000000081526004018080602001828103825260208152602001807f4f776e61626c653a2063616c6c6572206973206e6f7420746865206f776e657281525060200191505060405180910390fd5b61050e84610ccc565b61051783610ccc565b61052082610ccc565b61052981610ccc565b83600160006101000a81548173ffffffffffffffffffffffffffffffffffffffff021916908373ffffffffffffffffffffffffffffffffffffffff16021790555082600260006101000a81548173ffffffffffffffffffffffffffffffffffffffff021916908373ffffffffffffffffffffffffffffffffffffffff16021790555081600360006101000a81548173ffffffffffffffffffffffffffffffffffffffff021916908373ffffffffffffffffffffffffffffffffffffffff16021790555080600460006101000a81548173ffffffffffffffffffffffffffffffffffffffff021916908373ffffffffffffffffffffffffffffffffffffffff1602179055507f50d8c27f81b90b100acac52893d9582d38a67dc991ef264083c47379c7bd02bb84604051808273ffffffffffffffffffffffffffffffffffffffff1673ffffffffffffffffffffffffffffffffffffffff16815260200191505060405180910390a17f3ecb267225c0ef218d4be4eddfa2e203c094bcd6696e0a2efb872d1801e3697e83604051808273ffffffffffffffffffffffffffffffffffffffff1673ffffffffffffffffffffffffffffffffffffffff16815260200191505060405180910390a17fbdeb414278c2fe6bd2c0abf3e1960ffc27c4423b346b4f8ec8804c4eebf66bbf82604051808273ffffffffffffffffffffffffffffffffffffffff1673ffffffffffffffffffffffffffffffffffffffff16815260200191505060405180910390a17f143219c9e69b09e07e095fcc889b43d8f46ca892bba65f08dc3a0050869a567881604051808273ffffffffffffffffffffffffffffffffffffffff1673ffffffffffffffffffffffffffffffffffffffff16815260200191505060405180910390a16107c1610def565b50505050565b600360009054906101000a900473ffffffffffffffffffffffffffffffffffffffff1681565b60006107f882610eae565b9050919050565b60008060009054906101000a900473ffffffffffffffffffffffffffffffffffffffff16905090565b60008060009054906101000a900473ffffffffffffffffffffffffffffffffffffffff1673ffffffffffffffffffffffffffffffffffffffff163373ffffffffffffffffffffffffffffffffffffffff1614905090565b600260009054906101000a900473ffffffffffffffffffffffffffffffffffffffff1681565b600080600360009054906101000a900473ffffffffffffffffffffffffffffffffffffffff1673ffffffffffffffffffffffffffffffffffffffff1663a035b1fe6040518163ffffffff1660e01b815260040160206040518083038186803b15801561091057600080fd5b505afa158015610924573d6000803e3d6000fd5b505050506040513d602081101561093a57600080fd5b810190808051906020019092919050505090506000610957610ac9565b905060006109658383610ca7565b90506000806000600260009054906101000a900473ffffffffffffffffffffffffffffffffffffffff1673ffffffffffffffffffffffffffffffffffffffff16636299a6ef856040518263ffffffff1660e01b815260040180828152602001915050606060405180830381600087803b1580156109e157600080fd5b505af11580156109f5573d6000803e3d6000fd5b505050506040513d6060811015610a0b57600080fd5b810190808051906020019092919080519060200190929190805190602001909291905050509250925092507f1d995c4e1b377d430b441aa2a257a720b11eee3157ee1a871ea6aeca7d90e705838383876040518085815260200184815260200183815260200182815260200194505050505060405180910390a182965050505050505090565b600160009054906101000a900473ffffffffffffffffffffffffffffffffffffffff1681565b6000610ac282610ec2565b9050919050565b600080600360009054906101000a900473ffffffffffffffffffffffffffffffffffffffff1673ffffffffffffffffffffffffffffffffffffffff1663a035b1fe6040518163ffffffff1660e01b815260040160206040518083038186803b158015610b3457600080fd5b505afa158015610b48573d6000803e3d6000fd5b505050506040513d6020811015610b5e57600080fd5b810190808051906020019092919050505090506000610b7c82610ec2565b90506000806000600260009054906101000a900473ffffffffffffffffffffffffffffffffffffffff1673ffffffffffffffffffffffffffffffffffffffff16636299a6ef856040518263ffffffff1660e01b815260040180828152602001915050606060405180830381600087803b158015610bf857600080fd5b505af1158015610c0c573d6000803e3d6000fd5b505050506040513d6060811015610c2257600080fd5b810190808051906020019092919080519060200190929190805190602001909291905050509250925092507f5e4bb593a95124871627dc1eaa1e22e1d877ca1dbabb83c34b8f4e32033af444838383876040518085815260200184815260200183815260200182815260200194505050505060405180910390a1829550505050505090565b60008082905080670de0b6b3a76400008583030281610cc257fe5b0591505092915050565b600073ffffffffffffffffffffffffffffffffffffffff168173ffffffffffffffffffffffffffffffffffffffff161415610d6f576040517f08c379a000000000000000000000000000000000000000000000000000000000815260040180806020018281038252601e8152602001807f4163636f756e742063616e6e6f74206265207a65726f2061646472657373000081525060200191505060405180910390fd5b6000813b905060008111610deb576040517f08c379a00000000000000000000000000000000000000000000000000000000081526004018080602001828103825260208152602001807f4163636f756e7420636f64652073697a652063616e6e6f74206265207a65726f81525060200191505060405180910390fd5b5050565b600073ffffffffffffffffffffffffffffffffffffffff166000809054906101000a900473ffffffffffffffffffffffffffffffffffffffff1673ffffffffffffffffffffffffffffffffffffffff167f8be0079c531659141344cd1fd0a4f28419497f9722a3daafe3b4186f6b6457e060405160405180910390a360008060006101000a81548173ffffffffffffffffffffffffffffffffffffffff021916908373ffffffffffffffffffffffffffffffffffffffff160217905550565b600081670de0b6b3a7640000039050919050565b600081670de0b6b3a764000003905091905056fea264697066735822122065b25e9ccce46fe444397ac3c208903be84fb338e672e6ea99da3dbb9565155d64736f6c634300060b0033","linkReferences":{}},"methodIdentifiers":{"DECIMAL_PRECISION_I()":"1cc37032","controlError(uint256)":"653e87a7","isOwner()":"8f32d59b","marketOracle()":"60961528","owner()":"8da5cb5b","parControl()":"ce3d2302","parControlError(uint256)":"dc9c0a09","rateControl()":"a48e77f6","rateControlError(uint256,uint256)":"4590bdfd","setAddresses(address,address,address,address)":"4a945f8d","troveManager()":"3d83908a","updatePar()":"1311c115","updateRate()":"c7fee63e"},"id":4}