{"abi":[{"type":"constructor","inputs":[{"name":"controlVariable_","type":"bytes32","internalType":"bytes32"},{"name":"kp_","type":"int256","internalType":"int256"},{"name":"ki_","type":"int256","internalType":"int256"},{"name":"coBias_","type":"int256","internalType":"int256"},{"name":"perSecondIntegralLeak_","type":"uint256","internalType":"uint256"},{"name":"outputUpperBound_","type":"int256","internalType":"int256"},{"name":"outputLowerBound_","type":"int256","internalType":"int256"},{"name":"_updater","type":"address","internalType":"address"}],"stateMutability":"nonpayable"},{"type":"function","name":"RAY","inputs":[],"outputs":[{"name":"","type":"uint256","internalType":"uint256"}],"stateMutability":"view"},{"type":"function","name":"authorities","inputs":[{"name":"","type":"address","internalType":"address"}],"outputs":[{"name":"","type":"uint256","internalType":"uint256"}],"stateMutability":"view"},{"type":"function","name":"boundPiOutput","inputs":[{"name":"piOutput","type":"int256","internalType":"int256"}],"outputs":[{"name":"","type":"int256","internalType":"int256"}],"stateMutability":"view"},{"type":"function","name":"coBias","inputs":[],"outputs":[{"name":"","type":"int256","internalType":"int256"}],"stateMutability":"view"},{"type":"function","name":"controlVariable","inputs":[],"outputs":[{"name":"","type":"bytes32","internalType":"bytes32"}],"stateMutability":"view"},{"type":"function","name":"elapsed","inputs":[],"outputs":[{"name":"","type":"uint256","internalType":"uint256"}],"stateMutability":"view"},{"type":"function","name":"errorIntegral","inputs":[],"outputs":[{"name":"","type":"int256","internalType":"int256"}],"stateMutability":"view"},{"type":"function","name":"getNextErrorIntegral","inputs":[{"name":"error","type":"int256","internalType":"int256"}],"outputs":[{"name":"","type":"int256","internalType":"int256"},{"name":"","type":"int256","internalType":"int256"}],"stateMutability":"view"},{"type":"function","name":"getNextPiOutput","inputs":[{"name":"error","type":"int256","internalType":"int256"}],"outputs":[{"name":"","type":"int256","internalType":"int256"},{"name":"","type":"int256","internalType":"int256"},{"name":"","type":"int256","internalType":"int256"}],"stateMutability":"view"},{"type":"function","name":"getRawPiOutput","inputs":[{"name":"error","type":"int256","internalType":"int256"},{"name":"errorI","type":"int256","internalType":"int256"}],"outputs":[{"name":"","type":"int256","internalType":"int256"},{"name":"","type":"int256","internalType":"int256"},{"name":"","type":"int256","internalType":"int256"}],"stateMutability":"view"},{"type":"function","name":"ki","inputs":[],"outputs":[{"name":"","type":"int256","internalType":"int256"}],"stateMutability":"view"},{"type":"function","name":"kp","inputs":[],"outputs":[{"name":"","type":"int256","internalType":"int256"}],"stateMutability":"view"},{"type":"function","name":"lastError","inputs":[],"outputs":[{"name":"","type":"int256","internalType":"int256"}],"stateMutability":"view"},{"type":"function","name":"lastUpdateTime","inputs":[],"outputs":[{"name":"","type":"uint256","internalType":"uint256"}],"stateMutability":"view"},{"type":"function","name":"outputLowerBound","inputs":[],"outputs":[{"name":"","type":"int256","internalType":"int256"}],"stateMutability":"view"},{"type":"function","name":"outputUpperBound","inputs":[],"outputs":[{"name":"","type":"int256","internalType":"int256"}],"stateMutability":"view"},{"type":"function","name":"perSecondIntegralLeak","inputs":[],"outputs":[{"name":"","type":"uint256","internalType":"uint256"}],"stateMutability":"view"},{"type":"function","name":"riemannSum","inputs":[{"name":"x","type":"int256","internalType":"int256"},{"name":"y","type":"int256","internalType":"int256"}],"outputs":[{"name":"z","type":"int256","internalType":"int256"}],"stateMutability":"pure"},{"type":"function","name":"rpower","inputs":[{"name":"x","type":"uint256","internalType":"uint256"},{"name":"n","type":"uint256","internalType":"uint256"},{"name":"base","type":"uint256","internalType":"uint256"}],"outputs":[{"name":"z","type":"uint256","internalType":"uint256"}],"stateMutability":"pure"},{"type":"function","name":"update","inputs":[{"name":"error","type":"int256","internalType":"int256"}],"outputs":[{"name":"","type":"int256","internalType":"int256"},{"name":"","type":"int256","internalType":"int256"},{"name":"","type":"int256","internalType":"int256"}],"stateMutability":"nonpayable"},{"type":"function","name":"updater","inputs":[],"outputs":[{"name":"","type":"address","internalType":"address"}],"stateMutability":"view"}],"bytecode":{"object":"0x608060405234801561000f575f80fd5b506040516111ff3803806111ff833981810160405281019061003191906101f2565b81831215610074576040517f08c379a000000000000000000000000000000000000000000000000000000000815260040161006b906102fd565b60405180910390fd5b60015f808373ffffffffffffffffffffffffffffffffffffffff1673ffffffffffffffffffffffffffffffffffffffff1681526020019081526020015f2081905550876001819055508660028190555085600381905550846004819055508360098190555082600581905550816006819055505f600a81905550505050505050505061031b565b5f80fd5b5f819050919050565b610111816100ff565b811461011b575f80fd5b50565b5f8151905061012c81610108565b92915050565b5f819050919050565b61014481610132565b811461014e575f80fd5b50565b5f8151905061015f8161013b565b92915050565b5f819050919050565b61017781610165565b8114610181575f80fd5b50565b5f815190506101928161016e565b92915050565b5f73ffffffffffffffffffffffffffffffffffffffff82169050919050565b5f6101c182610198565b9050919050565b6101d1816101b7565b81146101db575f80fd5b50565b5f815190506101ec816101c8565b92915050565b5f805f805f805f80610100898b03121561020f5761020e6100fb565b5b5f61021c8b828c0161011e565b985050602061022d8b828c01610151565b975050604061023e8b828c01610151565b965050606061024f8b828c01610151565b95505060806102608b828c01610184565b94505060a06102718b828c01610151565b93505060c06102828b828c01610151565b92505060e06102938b828c016101de565b9150509295985092959890939650565b5f82825260208201905092915050565b7f5049436f6e74726f6c6c65722f696e76616c69642d626f756e647300000000005f82015250565b5f6102e7601b836102a3565b91506102f2826102b3565b602082019050919050565b5f6020820190508181035f830152610314816102db565b9050919050565b610ed7806103285f395ff3fe608060405234801561000f575f80fd5b5060043610610135575f3560e01c8063678eab4e116100b6578063bfd48c201161007a578063bfd48c2014610359578063c8f33c911461038b578063d6e882dc146103a9578063df034cd0146103d9578063e30220ac146103f7578063fbc2b7991461042857610135565b8063678eab4e146102b157806391223d69146102cf5780639842ea81146102ff5780639fd4525d1461031d578063ba3872061461033b57610135565b806355564d9d116100fd57806355564d9d146101cf57806361fafb5c146101ff5780636299a6ef1461023157806364a70e1614610263578063650b877e1461028157610135565b806329f0de3f146101395780632f29d8c51461015757806330f8bcd01461017557806347ae9f5814610193578063552033c4146101b1575b5f80fd5b610141610446565b60405161014e9190610940565b60405180910390f35b61015f61044c565b60405161016c9190610971565b60405180910390f35b61017d610470565b60405161018a9190610940565b60405180910390f35b61019b610476565b6040516101a891906109a2565b60405180910390f35b6101b961047c565b6040516101c69190610971565b60405180910390f35b6101e960048036038101906101e491906109e9565b61048c565b6040516101f69190610940565b60405180910390f35b61021960048036038101906102149190610a27565b6104ad565b60405161022893929190610a52565b60405180910390f35b61024b60048036038101906102469190610a27565b6104f1565b60405161025a93929190610a52565b60405180910390f35b61026b61061a565b6040516102789190610940565b60405180910390f35b61029b60048036038101906102969190610a27565b610620565b6040516102a89190610940565b60405180910390f35b6102b9610653565b6040516102c69190610940565b60405180910390f35b6102e960048036038101906102e49190610ae1565b610659565b6040516102f69190610971565b60405180910390f35b61030761066d565b6040516103149190610971565b60405180910390f35b610325610673565b6040516103329190610940565b60405180910390f35b610343610679565b6040516103509190610940565b60405180910390f35b610373600480360381019061036e91906109e9565b61067f565b60405161038293929190610a52565b60405180910390f35b6103936106f4565b6040516103a09190610971565b60405180910390f35b6103c360048036038101906103be9190610b36565b6106fa565b6040516103d09190610971565b60405180910390f35b6103e16107b7565b6040516103ee9190610b95565b60405180910390f35b610411600480360381019061040c9190610a27565b6107dc565b60405161041f929190610bae565b60405180910390f35b61043061089f565b60405161043d9190610940565b60405180910390f35b60085481565b5f80600a541461046957600a54426104649190610c02565b61046b565b5f5b905090565b60055481565b60015481565b6b033b2e3c9fd0803ce800000081565b5f6002828461049b9190610c35565b6104a59190610ca3565b905092915050565b5f805f806104ba856107dc565b5090505f805f6104ca888561067f565b9250925092505f6104da84610620565b905080838397509750975050505050509193909250565b5f805f60015f803373ffffffffffffffffffffffffffffffffffffffff1673ffffffffffffffffffffffffffffffffffffffff1681526020019081526020015f205414610573576040517f08c379a000000000000000000000000000000000000000000000000000000000815260040161056a90610d65565b60405180910390fd5b600a5442116105b7576040517f08c379a00000000000000000000000000000000000000000000000000000000081526004016105ae90610dcd565b60405180910390fd5b5f806105c2866107dc565b915091505f805f6105d3898661067f565b9250925092505f6105e384610620565b90506105f08187876108a5565b60078190555042600a81905550896008819055508083839850985098505050505050509193909250565b60025481565b5f8082905060065483121561063957600654905061064a565b6005548313156106495760055490505b5b80915050919050565b60045481565b5f602052805f5260405f205f915090505481565b60095481565b60065481565b60075481565b5f805f80670de0b6b3a76400006002548761069a9190610deb565b6106a49190610ca3565b90505f670de0b6b3a7640000600354876106be9190610deb565b6106c89190610ca3565b905080826004546106d99190610c35565b6106e39190610c35565b828294509450945050509250925092565b600a5481565b5f835f811461079957600284065f81146107165785925061071a565b8392505b50600283046002850494505b841561079357858602868782041461073c575f80fd5b8181018181101561074b575f80fd5b8581049750600287061561078657878502858982041415891515161561076f575f80fd5b8381018181101561077e575f80fd5b878104965050505b5050600285049450610726565b506107af565b835f81146107a9575f92506107ad565b8392505b505b509392505050565b600b5f9054906101000a900473ffffffffffffffffffffffffffffffffffffffff1681565b5f805f80600a54146107fb57600a54426107f69190610c02565b6107fd565b5f5b90505f8161080d8660085461048c565b6108179190610deb565b90505f6b033b2e3c9fd0803ce80000006009541461084d57610848600954846b033b2e3c9fd0803ce80000006106fa565b61085b565b6b033b2e3c9fd0803ce80000005b90505f6b033b2e3c9fd0803ce8000000600754836108799190610deb565b6108839190610ca3565b905082816108919190610c35565b839550955050505050915091565b60035481565b5f808390506108c76108bd60065487145f861261091c565b5f6007541261091c565b156108df5782816108d89190610e61565b9050610911565b6108fc6108f260055487145f861361091c565b5f6007541361091c565b1561091057828161090d9190610e61565b90505b5b809150509392505050565b5f818316905092915050565b5f819050919050565b61093a81610928565b82525050565b5f6020820190506109535f830184610931565b92915050565b5f819050919050565b61096b81610959565b82525050565b5f6020820190506109845f830184610962565b92915050565b5f819050919050565b61099c8161098a565b82525050565b5f6020820190506109b55f830184610993565b92915050565b5f80fd5b6109c881610928565b81146109d2575f80fd5b50565b5f813590506109e3816109bf565b92915050565b5f80604083850312156109ff576109fe6109bb565b5b5f610a0c858286016109d5565b9250506020610a1d858286016109d5565b9150509250929050565b5f60208284031215610a3c57610a3b6109bb565b5b5f610a49848285016109d5565b91505092915050565b5f606082019050610a655f830186610931565b610a726020830185610931565b610a7f6040830184610931565b949350505050565b5f73ffffffffffffffffffffffffffffffffffffffff82169050919050565b5f610ab082610a87565b9050919050565b610ac081610aa6565b8114610aca575f80fd5b50565b5f81359050610adb81610ab7565b92915050565b5f60208284031215610af657610af56109bb565b5b5f610b0384828501610acd565b91505092915050565b610b1581610959565b8114610b1f575f80fd5b50565b5f81359050610b3081610b0c565b92915050565b5f805f60608486031215610b4d57610b4c6109bb565b5b5f610b5a86828701610b22565b9350506020610b6b86828701610b22565b9250506040610b7c86828701610b22565b9150509250925092565b610b8f81610aa6565b82525050565b5f602082019050610ba85f830184610b86565b92915050565b5f604082019050610bc15f830185610931565b610bce6020830184610931565b9392505050565b7f4e487b71000000000000000000000000000000000000000000000000000000005f52601160045260245ffd5b5f610c0c82610959565b9150610c1783610959565b9250828203905081811115610c2f57610c2e610bd5565b5b92915050565b5f610c3f82610928565b9150610c4a83610928565b92508282019050828112155f8312168382125f841215161715610c7057610c6f610bd5565b5b92915050565b7f4e487b71000000000000000000000000000000000000000000000000000000005f52601260045260245ffd5b5f610cad82610928565b9150610cb883610928565b925082610cc857610cc7610c76565b5b60015f0383147f800000000000000000000000000000000000000000000000000000000000000083141615610d0057610cff610bd5565b5b828205905092915050565b5f82825260208201905092915050565b7f5049436f6e74726f6c6c65722f6e6f742d616e2d617574686f726974790000005f82015250565b5f610d4f601d83610d0b565b9150610d5a82610d1b565b602082019050919050565b5f6020820190508181035f830152610d7c81610d43565b9050919050565b7f5049436f6e74726f6c6c65722f776169742d6c6f6e67657200000000000000005f82015250565b5f610db7601883610d0b565b9150610dc282610d83565b602082019050919050565b5f6020820190508181035f830152610de481610dab565b9050919050565b5f610df582610928565b9150610e0083610928565b9250828202610e0e81610928565b91507f800000000000000000000000000000000000000000000000000000000000000084145f84121615610e4557610e44610bd5565b5b8282058414831517610e5a57610e59610bd5565b5b5092915050565b5f610e6b82610928565b9150610e7683610928565b925082820390508181125f8412168282135f851215161715610e9b57610e9a610bd5565b5b9291505056fea2646970667358221220d72a4973c58b106fe4dc8715ae042b343b1962fb4eb4396054c8d02b1f30acb664736f6c634300081a0033","linkReferences":{}},"methodIdentifiers":{"RAY()":"552033c4","authorities(address)":"91223d69","boundPiOutput(int256)":"650b877e","coBias()":"678eab4e","controlVariable()":"47ae9f58","elapsed()":"2f29d8c5","errorIntegral()":"ba387206","getNextErrorIntegral(int256)":"e30220ac","getNextPiOutput(int256)":"61fafb5c","getRawPiOutput(int256,int256)":"bfd48c20","ki()":"fbc2b799","kp()":"64a70e16","lastError()":"29f0de3f","lastUpdateTime()":"c8f33c91","outputLowerBound()":"9fd4525d","outputUpperBound()":"30f8bcd0","perSecondIntegralLeak()":"9842ea81","riemannSum(int256,int256)":"55564d9d","rpower(uint256,uint256,uint256)":"d6e882dc","update(int256)":"6299a6ef","updater()":"df034cd0"},"id":0}